{
  "contractName": "Address",
  "abi": [
    {
      "constant": false,
      "inputs": [
        {
          "name": "self",
          "type": "Address.Data storage"
        },
        {
          "name": "value",
          "type": "address"
        }
      ],
      "name": "insert",
      "outputs": [
        {
          "name": "",
          "type": "bool"
        }
      ],
      "payable": false,
      "stateMutability": "nonpayable",
      "type": "function"
    },
    {
      "constant": false,
      "inputs": [
        {
          "name": "self",
          "type": "Address.Data storage"
        },
        {
          "name": "value",
          "type": "address"
        }
      ],
      "name": "remove",
      "outputs": [
        {
          "name": "",
          "type": "bool"
        }
      ],
      "payable": false,
      "stateMutability": "nonpayable",
      "type": "function"
    }
  ],
  "bytecode": "0x6102e7610030600b82828239805160001a6073146000811461002057610022565bfe5b5030600052607381538281f3007300000000000000000000000000000000000000003014608060405260043610610063576000357c0100000000000000000000000000000000000000000000000000000000900463ffffffff168063196140d114610068578063459f60cb146100cd575b600080fd5b81801561007457600080fd5b506100b360048036038101908080359060200190929190803573ffffffffffffffffffffffffffffffffffffffff169060200190929190505050610132565b604051808215151515815260200191505060405180910390f35b8180156100d957600080fd5b5061011860048036038101908080359060200190929190803573ffffffffffffffffffffffffffffffffffffffff1690602001909291905050506101f7565b604051808215151515815260200191505060405180910390f35b60008260000160008373ffffffffffffffffffffffffffffffffffffffff1673ffffffffffffffffffffffffffffffffffffffff16815260200190815260200160002060009054906101000a900460ff16151561019257600090506101f1565b60008360000160008473ffffffffffffffffffffffffffffffffffffffff1673ffffffffffffffffffffffffffffffffffffffff16815260200190815260200160002060006101000a81548160ff021916908315150217905550600190505b92915050565b60008260000160008373ffffffffffffffffffffffffffffffffffffffff1673ffffffffffffffffffffffffffffffffffffffff16815260200190815260200160002060009054906101000a900460ff161561025657600090506102b5565b60018360000160008473ffffffffffffffffffffffffffffffffffffffff1673ffffffffffffffffffffffffffffffffffffffff16815260200190815260200160002060006101000a81548160ff021916908315150217905550600190505b929150505600a165627a7a72305820c3b7e686cdd488a79615e04dd3252b2c2b055894c8d0a4a7011a2f3672f9354d0029",
  "source": "pragma solidity ^0.4.17;\r\n\r\nlibrary Address {\r\n  // We define a new struct datatype that will be used to\r\n  // hold its data in the calling contract.\r\n  struct Data { mapping(address=> bool) flags; }\r\n\r\n  function insert(Data storage self, address value) public\r\n      returns (bool)\r\n  {\r\n      if (self.flags[value])\r\n          return false;\r\n      self.flags[value] = true;\r\n      return true;\r\n  }\r\n\r\n  function remove(Data storage self, address value) public\r\n      returns (bool)\r\n  {\r\n      if (!self.flags[value])\r\n          return false; // not there\r\n      self.flags[value] = false;\r\n      return true;\r\n  }\r\n\r\n  function contains(Data storage self, address value) internal view\r\n      returns (bool)\r\n  {\r\n      return self.flags[value];\r\n  }\r\n}\r\n",
  "sourcePath": "C:\\Users\\subhanshu_kumar\\Desktop\\kyc\\contracts\\libraries\\Address.sol",
  "compiler": {
    "name": "solc",
    "version": "0.4.24+commit.e67f0147.Emscripten.clang"
  },
  "schemaVersion": "2.0.1",
  "updatedAt": "2018-09-26T04:27:24.578Z"
}