{
  "contractName": "CustomerKYC",
  "abi": [
    {
      "constant": true,
      "inputs": [
        {
          "name": "",
          "type": "address"
        }
      ],
      "name": "addressStatus",
      "outputs": [
        {
          "name": "",
          "type": "uint8"
        }
      ],
      "payable": false,
      "stateMutability": "view",
      "type": "function"
    },
    {
      "constant": true,
      "inputs": [],
      "name": "getOwner",
      "outputs": [
        {
          "name": "",
          "type": "address"
        }
      ],
      "payable": false,
      "stateMutability": "view",
      "type": "function"
    },
    {
      "constant": true,
      "inputs": [],
      "name": "owner",
      "outputs": [
        {
          "name": "",
          "type": "address"
        }
      ],
      "payable": false,
      "stateMutability": "view",
      "type": "function"
    },
    {
      "constant": false,
      "inputs": [
        {
          "name": "newOwner",
          "type": "address"
        }
      ],
      "name": "transferOwnership",
      "outputs": [],
      "payable": false,
      "stateMutability": "nonpayable",
      "type": "function"
    },
    {
      "anonymous": false,
      "inputs": [
        {
          "indexed": false,
          "name": "addr",
          "type": "address"
        }
      ],
      "name": "AddedKYCEmployee",
      "type": "event"
    },
    {
      "anonymous": false,
      "inputs": [
        {
          "indexed": false,
          "name": "addr",
          "type": "address"
        }
      ],
      "name": "RemovedKYCEmployee",
      "type": "event"
    },
    {
      "anonymous": false,
      "inputs": [
        {
          "indexed": false,
          "name": "addr",
          "type": "address"
        }
      ],
      "name": "SubmittedKYCAccount",
      "type": "event"
    },
    {
      "anonymous": false,
      "inputs": [
        {
          "indexed": false,
          "name": "addr",
          "type": "address"
        },
        {
          "indexed": true,
          "name": "by",
          "type": "address"
        }
      ],
      "name": "ProcessingKYCAccount",
      "type": "event"
    },
    {
      "anonymous": false,
      "inputs": [
        {
          "indexed": false,
          "name": "addr",
          "type": "address"
        },
        {
          "indexed": true,
          "name": "by",
          "type": "address"
        }
      ],
      "name": "RejectedKYCAccount",
      "type": "event"
    },
    {
      "anonymous": false,
      "inputs": [
        {
          "indexed": false,
          "name": "addr",
          "type": "address"
        },
        {
          "indexed": true,
          "name": "by",
          "type": "address"
        }
      ],
      "name": "VerifiedKYCAccount",
      "type": "event"
    },
    {
      "anonymous": false,
      "inputs": [
        {
          "indexed": false,
          "name": "previousOwner",
          "type": "address"
        },
        {
          "indexed": false,
          "name": "newOwner",
          "type": "address"
        }
      ],
      "name": "OwnershipTransferred",
      "type": "event"
    },
    {
      "constant": false,
      "inputs": [
        {
          "name": "addr",
          "type": "address"
        }
      ],
      "name": "addKYCEmployee",
      "outputs": [],
      "payable": false,
      "stateMutability": "nonpayable",
      "type": "function"
    },
    {
      "constant": false,
      "inputs": [
        {
          "name": "addr",
          "type": "address"
        }
      ],
      "name": "removeKYCEmployee",
      "outputs": [],
      "payable": false,
      "stateMutability": "nonpayable",
      "type": "function"
    },
    {
      "constant": false,
      "inputs": [
        {
          "name": "addr",
          "type": "address"
        }
      ],
      "name": "submitKYCAccount",
      "outputs": [],
      "payable": false,
      "stateMutability": "nonpayable",
      "type": "function"
    },
    {
      "constant": false,
      "inputs": [
        {
          "name": "addr",
          "type": "address"
        }
      ],
      "name": "startProcessingKYCAccount",
      "outputs": [],
      "payable": false,
      "stateMutability": "nonpayable",
      "type": "function"
    },
    {
      "constant": false,
      "inputs": [
        {
          "name": "addr",
          "type": "address"
        }
      ],
      "name": "rejectKYCAccount",
      "outputs": [],
      "payable": false,
      "stateMutability": "nonpayable",
      "type": "function"
    },
    {
      "constant": false,
      "inputs": [
        {
          "name": "addr",
          "type": "address"
        }
      ],
      "name": "verifyKYCAccount",
      "outputs": [],
      "payable": false,
      "stateMutability": "nonpayable",
      "type": "function"
    },
    {
      "constant": true,
      "inputs": [
        {
          "name": "addr",
          "type": "address"
        }
      ],
      "name": "getAddressStatus",
      "outputs": [
        {
          "name": "",
          "type": "uint8"
        }
      ],
      "payable": false,
      "stateMutability": "view",
      "type": "function"
    },
    {
      "constant": true,
      "inputs": [
        {
          "name": "addr",
          "type": "address"
        }
      ],
      "name": "getAddressStatusForDisplay",
      "outputs": [
        {
          "name": "",
          "type": "string"
        }
      ],
      "payable": false,
      "stateMutability": "view",
      "type": "function"
    },
    {
      "constant": true,
      "inputs": [
        {
          "name": "addr",
          "type": "address"
        }
      ],
      "name": "employeeStatus",
      "outputs": [
        {
          "name": "",
          "type": "bool"
        }
      ],
      "payable": false,
      "stateMutability": "view",
      "type": "function"
    },
    {
      "constant": true,
      "inputs": [],
      "name": "getSubmittedKYCStatus",
      "outputs": [
        {
          "name": "",
          "type": "uint8"
        }
      ],
      "payable": false,
      "stateMutability": "pure",
      "type": "function"
    },
    {
      "constant": true,
      "inputs": [],
      "name": "getProcessingKYCStatus",
      "outputs": [
        {
          "name": "",
          "type": "uint8"
        }
      ],
      "payable": false,
      "stateMutability": "pure",
      "type": "function"
    },
    {
      "constant": true,
      "inputs": [],
      "name": "getVerifiedKYCStatus",
      "outputs": [
        {
          "name": "",
          "type": "uint8"
        }
      ],
      "payable": false,
      "stateMutability": "pure",
      "type": "function"
    },
    {
      "constant": true,
      "inputs": [],
      "name": "getRejectedKYCStatus",
      "outputs": [
        {
          "name": "",
          "type": "uint8"
        }
      ],
      "payable": false,
      "stateMutability": "pure",
      "type": "function"
    }
  ],
  "bytecode": "0x6080604052336000806101000a81548173ffffffffffffffffffffffffffffffffffffffff021916908373ffffffffffffffffffffffffffffffffffffffff1602179055506114b6806100536000396000f3006080604052600436106100f1576000357c0100000000000000000000000000000000000000000000000000000000900463ffffffff1680631c527f37146100f657806329a206de14610127578063418349551461016a57806352da1256146101c75780635e98f124146101f85780636a0aa088146102295780638012d950146102e5578063893d20e8146103165780638da5cb5b1461036d5780638e6f1ffc146103c4578063b3497bdd14610407578063b43334f81461044a578063c0cb8c6b1461048d578063d34de785146104d0578063d4e1559914610513578063e226a1b61461056e578063f2fde38b146105cb575b600080fd5b34801561010257600080fd5b5061010b61060e565b604051808260ff1660ff16815260200191505060405180910390f35b34801561013357600080fd5b50610168600480360381019080803573ffffffffffffffffffffffffffffffffffffffff169060200190929190505050610622565b005b34801561017657600080fd5b506101ab600480360381019080803573ffffffffffffffffffffffffffffffffffffffff1690602001909291905050506107ca565b604051808260ff1660ff16815260200191505060405180910390f35b3480156101d357600080fd5b506101dc6107ea565b604051808260ff1660ff16815260200191505060405180910390f35b34801561020457600080fd5b5061020d6107fd565b604051808260ff1660ff16815260200191505060405180910390f35b34801561023557600080fd5b5061026a600480360381019080803573ffffffffffffffffffffffffffffffffffffffff169060200190929190505050610811565b6040518080602001828103825283818151815260200191508051906020019080838360005b838110156102aa57808201518184015260208101905061028f565b50505050905090810190601f1680156102d75780820380516001836020036101000a031916815260200191505b509250505060405180910390f35b3480156102f157600080fd5b506102fa6109fe565b604051808260ff1660ff16815260200191505060405180910390f35b34801561032257600080fd5b5061032b610a12565b604051808273ffffffffffffffffffffffffffffffffffffffff1673ffffffffffffffffffffffffffffffffffffffff16815260200191505060405180910390f35b34801561037957600080fd5b50610382610a3b565b604051808273ffffffffffffffffffffffffffffffffffffffff1673ffffffffffffffffffffffffffffffffffffffff16815260200191505060405180910390f35b3480156103d057600080fd5b50610405600480360381019080803573ffffffffffffffffffffffffffffffffffffffff169060200190929190505050610a60565b005b34801561041357600080fd5b50610448600480360381019080803573ffffffffffffffffffffffffffffffffffffffff169060200190929190505050610c21565b005b34801561045657600080fd5b5061048b600480360381019080803573ffffffffffffffffffffffffffffffffffffffff169060200190929190505050610e01565b005b34801561049957600080fd5b506104ce600480360381019080803573ffffffffffffffffffffffffffffffffffffffff169060200190929190505050610fc3565b005b3480156104dc57600080fd5b50610511600480360381019080803573ffffffffffffffffffffffffffffffffffffffff16906020019092919050505061116b565b005b34801561051f57600080fd5b50610554600480360381019080803573ffffffffffffffffffffffffffffffffffffffff169060200190929190505050611235565b604051808215151515815260200191505060405180910390f35b34801561057a57600080fd5b506105af600480360381019080803573ffffffffffffffffffffffffffffffffffffffff169060200190929190505050611249565b604051808260ff1660ff16815260200191505060405180910390f35b3480156105d757600080fd5b5061060c600480360381019080803573ffffffffffffffffffffffffffffffffffffffff16906020019092919050505061129f565b005b60006003600481111561061d57fe5b905090565b6000809054906101000a900473ffffffffffffffffffffffffffffffffffffffff1673ffffffffffffffffffffffffffffffffffffffff163373ffffffffffffffffffffffffffffffffffffffff1614151561067d57600080fd5b73__Address_______________________________63196140d16002836040518363ffffffff167c0100000000000000000000000000000000000000000000000000000000028152600401808381526020018273ffffffffffffffffffffffffffffffffffffffff1673ffffffffffffffffffffffffffffffffffffffff1681526020019250505060206040518083038186803b15801561071d57600080fd5b505af4158015610731573d6000803e3d6000fd5b505050506040513d602081101561074757600080fd5b81019080805190602001909291905050501515610763576107c7565b7fb4d1bb973bf5c020d391b8fe6f678528a4a93d3d2b5e92b8940f637f14d5c50581604051808273ffffffffffffffffffffffffffffffffffffffff1673ffffffffffffffffffffffffffffffffffffffff16815260200191505060405180910390a15b50565b60016020528060005260406000206000915054906101000a900460ff1681565b60006004808111156107f857fe5b905090565b60006002600481111561080c57fe5b905090565b60606000600160008473ffffffffffffffffffffffffffffffffffffffff1673ffffffffffffffffffffffffffffffffffffffff16815260200190815260200160002060009054906101000a900460ff1690506001600481111561087157fe5b60ff168160ff1614156108bb576040805190810160405280601881526020017f5375626d697474656420666f722050726f63657373696e67000000000000000081525091506109f8565b600260048111156108c857fe5b60ff168160ff161415610912576040805190810160405280600a81526020017f50726f63657373696e670000000000000000000000000000000000000000000081525091506109f8565b6003600481111561091f57fe5b60ff168160ff161415610969576040805190810160405280600881526020017f566572696669656400000000000000000000000000000000000000000000000081525091506109f8565b60048081111561097557fe5b60ff168160ff1614156109bf576040805190810160405280600881526020017f52656a656374656400000000000000000000000000000000000000000000000081525091506109f8565b6040805190810160405280600b81526020017f4e6f74205374617274656400000000000000000000000000000000000000000081525091505b50919050565b600060016004811115610a0d57fe5b905090565b60008060009054906101000a900473ffffffffffffffffffffffffffffffffffffffff16905090565b6000809054906101000a900473ffffffffffffffffffffffffffffffffffffffff1681565b60008060009054906101000a900473ffffffffffffffffffffffffffffffffffffffff1673ffffffffffffffffffffffffffffffffffffffff163373ffffffffffffffffffffffffffffffffffffffff161480610ac45750610ac3600233611431565b5b1515610acf57610c1d565b600160008373ffffffffffffffffffffffffffffffffffffffff1673ffffffffffffffffffffffffffffffffffffffff16815260200190815260200160002060009054906101000a900460ff16905060026004811115610b2b57fe5b60ff168160ff16141515610b3e57610c1c565b600480811115610b4a57fe5b600160008473ffffffffffffffffffffffffffffffffffffffff1673ffffffffffffffffffffffffffffffffffffffff16815260200190815260200160002060006101000a81548160ff021916908360ff1602179055503373ffffffffffffffffffffffffffffffffffffffff167f193047a6eeecf0c47ddbb7491e37a93a0433085e7ca1c9dad0af1fe821acf3b283604051808273ffffffffffffffffffffffffffffffffffffffff1673ffffffffffffffffffffffffffffffffffffffff16815260200191505060405180910390a25b5b5050565b60008060009054906101000a900473ffffffffffffffffffffffffffffffffffffffff1673ffffffffffffffffffffffffffffffffffffffff163373ffffffffffffffffffffffffffffffffffffffff161480610c855750610c84600233611431565b5b1515610c9057610dfd565b600160008373ffffffffffffffffffffffffffffffffffffffff1673ffffffffffffffffffffffffffffffffffffffff16815260200190815260200160002060009054906101000a900460ff169050600480811115610ceb57fe5b60ff168160ff161415610cfd57610dfc565b60026004811115610d0a57fe5b60ff168160ff16141515610d1d57610dfc565b60036004811115610d2a57fe5b600160008473ffffffffffffffffffffffffffffffffffffffff1673ffffffffffffffffffffffffffffffffffffffff16815260200190815260200160002060006101000a81548160ff021916908360ff1602179055503373ffffffffffffffffffffffffffffffffffffffff167f26355b7955b7e61ce4eced7b579e870d2091bfb6cd45a4389b4ddb1f84a4507583604051808273ffffffffffffffffffffffffffffffffffffffff1673ffffffffffffffffffffffffffffffffffffffff16815260200191505060405180910390a25b5b5050565b60008060009054906101000a900473ffffffffffffffffffffffffffffffffffffffff1673ffffffffffffffffffffffffffffffffffffffff163373ffffffffffffffffffffffffffffffffffffffff161480610e655750610e64600233611431565b5b1515610e7057610fbf565b600160008373ffffffffffffffffffffffffffffffffffffffff1673ffffffffffffffffffffffffffffffffffffffff16815260200190815260200160002060009054906101000a900460ff16905060016004811115610ecc57fe5b60ff168160ff16141515610edf57610fbe565b60026004811115610eec57fe5b600160008473ffffffffffffffffffffffffffffffffffffffff1673ffffffffffffffffffffffffffffffffffffffff16815260200190815260200160002060006101000a81548160ff021916908360ff1602179055503373ffffffffffffffffffffffffffffffffffffffff167fb6fd637bf951b97c8c4fef907102397b6f0489f56a52f207066703b3b8f90c6383604051808273ffffffffffffffffffffffffffffffffffffffff1673ffffffffffffffffffffffffffffffffffffffff16815260200191505060405180910390a25b5b5050565b6000809054906101000a900473ffffffffffffffffffffffffffffffffffffffff1673ffffffffffffffffffffffffffffffffffffffff163373ffffffffffffffffffffffffffffffffffffffff1614151561101e57600080fd5b73__Address_______________________________63459f60cb6002836040518363ffffffff167c0100000000000000000000000000000000000000000000000000000000028152600401808381526020018273ffffffffffffffffffffffffffffffffffffffff1673ffffffffffffffffffffffffffffffffffffffff1681526020019250505060206040518083038186803b1580156110be57600080fd5b505af41580156110d2573d6000803e3d6000fd5b505050506040513d60208110156110e857600080fd5b8101908080519060200190929190505050151561110457611168565b7f8966b082c3cbd830b2f0a5511e2350c7d054253247663e830c14322ec923281d81604051808273ffffffffffffffffffffffffffffffffffffffff1673ffffffffffffffffffffffffffffffffffffffff16815260200191505060405180910390a15b50565b6001600481111561117857fe5b600160008373ffffffffffffffffffffffffffffffffffffffff1673ffffffffffffffffffffffffffffffffffffffff16815260200190815260200160002060006101000a81548160ff021916908360ff1602179055507fbd8e6d3c33a72ca2ecd04f6cfce32875386144e8c109171a852a7a88659f841681604051808273ffffffffffffffffffffffffffffffffffffffff1673ffffffffffffffffffffffffffffffffffffffff16815260200191505060405180910390a150565b6000611242600283611431565b9050919050565b6000600160008373ffffffffffffffffffffffffffffffffffffffff1673ffffffffffffffffffffffffffffffffffffffff16815260200190815260200160002060009054906101000a900460ff169050919050565b6000809054906101000a900473ffffffffffffffffffffffffffffffffffffffff1673ffffffffffffffffffffffffffffffffffffffff163373ffffffffffffffffffffffffffffffffffffffff161415156112fa57600080fd5b600073ffffffffffffffffffffffffffffffffffffffff168173ffffffffffffffffffffffffffffffffffffffff161415151561133657600080fd5b7f8be0079c531659141344cd1fd0a4f28419497f9722a3daafe3b4186f6b6457e06000809054906101000a900473ffffffffffffffffffffffffffffffffffffffff1682604051808373ffffffffffffffffffffffffffffffffffffffff1673ffffffffffffffffffffffffffffffffffffffff1681526020018273ffffffffffffffffffffffffffffffffffffffff1673ffffffffffffffffffffffffffffffffffffffff1681526020019250505060405180910390a1806000806101000a81548173ffffffffffffffffffffffffffffffffffffffff021916908373ffffffffffffffffffffffffffffffffffffffff16021790555050565b60008260000160008373ffffffffffffffffffffffffffffffffffffffff1673ffffffffffffffffffffffffffffffffffffffff16815260200190815260200160002060009054906101000a900460ff169050929150505600a165627a7a72305820df0a9b36a383c968b13611394bbee0d27674b45f5363e8a0b1c598aa8a10fa030029",
  "source": "pragma solidity ^0.4.17;\r\n\r\nimport \"./Ownable.sol\";\r\nimport \"./libraries/Address.sol\";\r\n\r\n\r\ncontract CustomerKYC is Ownable {\r\n    enum KYCStatus {\r\n        NOT_STARTED,\r\n        SUBMITTED,\r\n        PROCESSING,\r\n        VERIFIED,\r\n        REJECTED\r\n     }\r\n\r\n    event AddedKYCEmployee(address addr);\r\n\r\n    event RemovedKYCEmployee(address addr);\r\n\r\n    event SubmittedKYCAccount(address addr);\r\n\r\n    event ProcessingKYCAccount(address addr, address indexed by);\r\n\r\n    event RejectedKYCAccount(address addr, address indexed by);\r\n\r\n    event VerifiedKYCAccount(address addr, address indexed by);\r\n\r\n    mapping(address=>uint8) public addressStatus;\r\n    Address.Data kycEmployees;\r\n\r\n    function addKYCEmployee(address addr) public onlyOwner {\r\n      if(!Address.insert(kycEmployees, addr)) {\r\n        return;\r\n      }\r\n\r\n      emit AddedKYCEmployee(addr);\r\n    }\r\n\r\n    function removeKYCEmployee(address addr) public onlyOwner {\r\n      if(!Address.remove(kycEmployees, addr)) {\r\n        return;\r\n      }\r\n\r\n      emit RemovedKYCEmployee(addr);\r\n    }\r\n\r\n    function submitKYCAccount(address addr) public {\r\n        addressStatus[addr] = uint8(KYCStatus.SUBMITTED);\r\n\r\n        emit SubmittedKYCAccount(addr);\r\n    }\r\n\r\n    function startProcessingKYCAccount(address addr) public onlyOwnerOrPartner {\r\n        uint8 status = addressStatus[addr];\r\n\r\n        if(status != uint8(KYCStatus.SUBMITTED)) {\r\n            return;\r\n        }\r\n\r\n        addressStatus[addr] = uint8(KYCStatus.PROCESSING);\r\n\r\n        emit ProcessingKYCAccount(addr, msg.sender);\r\n    }\r\n\r\n    function rejectKYCAccount(address addr) public onlyOwnerOrPartner {\r\n        uint8 status = addressStatus[addr];\r\n\r\n        if(status != uint8(KYCStatus.PROCESSING)) {\r\n            return;\r\n        }\r\n\r\n        addressStatus[addr] = uint8(KYCStatus.REJECTED);\r\n\r\n        emit RejectedKYCAccount(addr, msg.sender);\r\n    }\r\n\r\n    function verifyKYCAccount(address addr) public onlyOwnerOrPartner {\r\n        uint8 status = addressStatus[addr];\r\n\r\n        if(status == uint8(KYCStatus.REJECTED)) {\r\n            return;\r\n        }\r\n\r\n        if(status != uint8(KYCStatus.PROCESSING)) {\r\n          return;\r\n        }\r\n\r\n        addressStatus[addr] = uint8(KYCStatus.VERIFIED);\r\n\r\n        emit VerifiedKYCAccount(addr, msg.sender);\r\n    }\r\n\r\n\r\n    function getAddressStatus(address addr) public constant returns (uint8) {\r\n        return uint8(addressStatus[addr]);\r\n    }\r\n\r\n    function getAddressStatusForDisplay(address addr) public constant returns (string) {\r\n      uint8 status = uint8(addressStatus[addr]);\r\n      if (status == uint8(KYCStatus.SUBMITTED)) {\r\n        return \"Submitted for Processing\";\r\n      } else if (status == uint8(KYCStatus.PROCESSING)) {\r\n        return \"Processing\";\r\n      } else if (status == uint8(KYCStatus.VERIFIED)) {\r\n        return \"Verified\";\r\n      } else if (status == uint8(KYCStatus.REJECTED)) {\r\n        return \"Rejected\";\r\n      } else {\r\n        return \"Not Started\";\r\n      }\r\n    }\r\n\r\n    function employeeStatus(address addr) public constant returns (bool) {\r\n      return Address.contains(kycEmployees, addr);\r\n    }\r\n\r\n    function getSubmittedKYCStatus() public pure returns (uint8) {\r\n      return uint8(KYCStatus.SUBMITTED);\r\n    }\r\n\r\n    function getProcessingKYCStatus() public pure returns (uint8) {\r\n      return uint8(KYCStatus.PROCESSING);\r\n    }\r\n\r\n    function getVerifiedKYCStatus() public pure returns (uint8) {\r\n      return uint8(KYCStatus.VERIFIED);\r\n    }\r\n\r\n    function getRejectedKYCStatus() public pure returns (uint8) {\r\n      return uint8(KYCStatus.REJECTED);\r\n    }\r\n\r\n    modifier onlyOwnerOrPartner() {\r\n\r\n        if(!(msg.sender == owner || Address.contains(kycEmployees, msg.sender))) {\r\n\t\treturn;\r\n        }\r\n\r\n        _;\r\n    }\r\n\r\n}\r\n",
  "sourcePath": "C:\\Users\\subhanshu_kumar\\Desktop\\kyc\\contracts\\CustomerKYC.sol",
  "compiler": {
    "name": "solc",
    "version": "0.4.24+commit.e67f0147.Emscripten.clang"
  },
  "schemaVersion": "2.0.1",
  "updatedAt": "2018-09-26T04:27:24.594Z"
}